:100000000C9434000C943E000C943E000C943E0082
:100010000C943E000C943E000C943E000C943E0068
:100020000C943E000C943E000C943E000C943E0058
:100030000C943E000C943E000C943E000C943E0048
:100040000C943E000C943E000C943E000C943E0038
:100050000C943E000C943E000C943E000C943E0028
:100060000C943E000C943E0011241FBECFEFD8E04C
:10007000DEBFCDBF0E9440000C9458000C940000DD
:100080008FE384B985B92D982FEF81EE94E021504C
:1000900080409040E1F700C000002D9A2FEF81EEE4
:1000A00094E0215080409040E1F700C00000EBCF89
:0400B000F894FFCFF2
:00000001FF
