S00D000053746570332E7372656348
S11300000C9434000C943E000C943E000C943E007E
S11300100C943E000C943E000C943E000C943E0064
S11300200C943E000C943E000C943E000C943E0054
S11300300C943E000C943E000C943E000C943E0044
S11300400C943E000C943E000C943E000C943E0034
S11300500C943E000C943E000C943E000C943E0024
S11300600C943E000C943E0011241FBECFEFD8E048
S1130070DEBFCDBF0E9440000C94B8000C94000079
S11300808FE384B985B980E090E0F3E0E0E070E0CC
S113009060E051E040E032E020E08130910519F168
S11300A01CF4009749F0F9CF8230910599F183301F
S11300B0910509F446C0F1CF2D988FEF91EEA4E09D
S11300C081509040A040E1F700C000002D9A8FEFCE
S11300D091EEA4E081509040A040E1F700C0000000
S11300E0852F942FDACF2C988FEF91EEA4E08150D6
S11300F09040A040E1F700C000002C9A8FEF91EEF1
S1130100A4E081509040A040E1F700C00000832F9C
S1130110922FC3CF2A988FEF91EEA4E081509040A4
S1130120A040E1F700C000002A9A8FEF91EEA4E00E
S113013081509040A040E1F700C000008F2F9E2F17
S1130140ACCF2B988FEF91EEA4E081509040A0406B
S1130150E1F700C000002B9A8FEF91EEA4E08150EC
S11301609040A040E1F700C00000872F962F95CF64
S1070170F894FFCF2D
S9030000FC
