:100000000C9434000C943E000C943E000C943E0082
:100010000C943E000C943E000C943E000C943E0068
:100020000C943E000C943E000C943E000C943E0058
:100030000C943E000C943E000C943E000C943E0048
:100040000C943E000C943E000C943E000C943E0038
:100050000C943E000C943E000C943E000C943E0028
:100060000C943E000C943E0011241FBECFEFD8E04C
:10007000DEBFCDBF0E9440000C94BE000C94000077
:100080008FE384B985B980EF8AB98CEF8BB980E0B2
:1000900090E04B9905C00196843091050CF069C041
:1000A0004A9903C001970AF44DC08130910501F1CE
:1000B0001CF4009741F0EDCF8230910571F183304F
:1000C000910539F73FC02D982FEF31EE44E02150D4
:1000D00030404040E1F700C000002D9A2FEF31EE94
:1000E00044E0215030404040E1F700C00000D1CF53
:1000F0002C982FEF31EE44E0215030404040E1F7A2
:1001000000C000002C9A2FEF31EE44E02150304027
:100110004040E1F700C00000BCCF2A982FEF31EE3D
:1001200044E0215030404040E1F700C000002A9AEE
:100130002FEF31EE44E0215030404040E1F700C065
:100140000000A7CF2B988FEF91EE24E081509040D4
:100150002040E1F700C000002B9A3FEF41EE84E021
:10016000315040408040E1F700C0000083E090E063
:1001700090CF4A9BE7CF80E090E097CFF894FFCFF5
:00000001FF
