S00D000053746570362E7372656345
S11300000C9434000C943E000C943E000C943E007E
S11300100C943E000C943E000C943E000C943E0064
S11300200C943E000C943E000C943E000C943E0054
S11300300C943E000C943E000C943E000C943E0044
S11300400C943E000C943E000C943E000C943E0034
S11300500C943E000C943E000C943E000C943E0024
S11300600C943E000C943E0011241FBECFEFD8E048
S1130070DEBFCDBF0E9440000C94D5000C9400005C
S11300808FE384B985B980EF8AB98CEF8BB980E0AE
S113009090E04B990CC0EFE1FEE43197F1F700C01A
S11300A0000029B10196843091050CF079C04A9979
S11300B00AC0EFE1FEE43197F1F700C0000029B176
S11300C001970AF44EC08130910509F11CF40097A0
S11300D049F0DFCF8230910579F18330910509F43D
S11300E040C0D7CF2D98FFEF21EE34E0F1502040EF
S11300F03040E1F700C000002D9A4FEFE1EEF4E04C
S11301004150E040F040E1F700C00000C2CF2C981D
S11301102FEF31EE44E0215030404040E1F700C081
S113012000002C9AEFEFF1EE24E0E150F040204083
S1130130E1F700C00000ADCF2A983FEF41EEE4E0C4
S113014031504040E040E1F700C000002A9AFFEF40
S113015021EE34E0F15020403040E1F700C00000CF
S113016098CF2B984FEF81EE94E04150804090401F
S1130170E1F700C000002B9AEFEFF1EE24E0E1502C
S1130180F0402040E1F700C0000083E090E081CF20
S11301908FE19EE40197F1F700C0000089B1E1CF3F
S11101A04A9BF6CF80E090E08ECFF894FFCF1C
S9030000FC
